S11340004E554556456E4F43484F6E5349455445AA
S11340106E534549536E43494E434F6E4355415485
S1134020524F6E545245536E444F536E4D494C6E2D
S11340304D494C4C4F4E45536E4E4F5645434945A2
S11340404E544F536E4F43484F4349454E544F537C
S11340506E534554454349454E544F536E53454959
S1134060534349454E544F536E5155494E49454E5D
S1134070544F536E43554154524F4349454E544F48
S1134080536E545245534349454E544F536E444F17
S1134090534349454E544F536E4349454E544F6E16
S11340A04349454E6E4E4F56454E54416E4F43481C
S11340B0454E54416E534554454E54416E534553F9
S11340C0454E54416E43494E4355454E54416E430B
S11340D0554152454E54416E545245494E54416ED9
S11340E05645494E54456E4449455A6E5645494EC7
S11340F0544943494E434F6E5155494E43456E59B9
S11341002043494E434F6E5045534F536E8E00EE3D
S1134110BD45D77F02B07F02B17F02B37F02B47F77
S113412002037F02027F02067F02057F02047F02F0
S1134130077F02137F02127F02167F02157F02148B
S11341407F02177F02237F02227F02267F02257FC0
S113415002247F02277F02337F02327F02367F02EE
S1134160357F02347F02377F02437F02427F02465B
S11341707F02457F02447F02477F02537F02527FC2
S113418002567F02557F02547F02577F02637F02EB
S1134190627F02667F02657F02647F02677F02732B
S11341A07F02727F02767F02757F02747F02777FBF
S11341B002837F02827F02877F02867F02857F02DD
S11341C0847F02887F02937F02927F02967F02950A
S11341D07F02947F02977F00177F00167F00157F70
S11341E000147F00137F00127F00117F00107F00F6
S11341F050C62BD702863F9700D6029600813F27F0
S1134200FAC13F2732814E272B8141276081422703
S1134210678143276E814427758145277C81462722
S11342203A814727398148273881492737814A27E6
S1134230367E41F57E4113812B2712812D2715816E
S11342403D26B27E4385C63FD7027E41F5C62BD7B5
S1134250027E41F5C62DD7027E41F57E42A47E4200
S1134260AF7E42BA7E42C57E42D07E41F5C12B2745
S11342706DC12D26F57E4335C12B276BC12D26EA52
S11342807E433DC12B2769C12D26DF7E4345C12BCB
S11342902767C12D26D47E434DC12B2765C12D260A
S11342A0C97E4355C12B2763C12D26BE7E435DC104
S11342B02B2761C12D26B37E4365C12B275FC12DFA
S11342C026A87E436DC12B275DC12D269D7E437597
S11342D0C12B275BC12D26927E437DBD45977C0271
S11342E0027E4246BD45977C02127E4246BD4597FA
S11342F07C02227E4246BD45977C02327E4246BD08
S113430045977C02427E4246BD45977C02527E42DE
S113431046BD45977C02627E4246BD45977C02724B
S11343207E4246BD45977C02827E4246BD45977CCF
S113433002927E42467A02022DA17E42467A0212FF
S11343402DA27E42467A02222DA37E42467A023272
S11343502DA47E42467A02422DA57E42467A02521E
S11343602DA67E42467A02622DA77E42467A0272CA
S11343702DA87E42467A02822DA97E42467A029276
S11343802DAA7E4246BD45B8B60202F60202BD45DC
S113439012FF0207B60212F60212BD452BFF0217E6
S11343A0B60222F60222BD4512FF0227B60232F6F9
S11343B00232BD452BFF0237B60232F60232BD454A
S11343C02BFF0237B60242F60242BD4544FF0247C4
S11343D0B60252F60252BD455BFF0257B60262F6C0
S11343E00262BD4544FF0267B60272F60272BD4521
S11343F05BFF0277F60282F702B2F602B2C100272F
S11344002CCE0002021A8300002711C60186323D19
S1134410F302B0FD02B07A02B27E43FA8619C601F5
S11344203DF302B3FD02B37A02B27E43FAFC02B357
S1134430F302B0FD0288F60292F702B2F602B2C1AC
S113444000272CCE0002021A8300002711C6018621
S11344500A3DF302B0FD02B07A02B27E443C860506
S1134460C6013DF302B3FD02B37A02B27E443CFCC2
S113447002B3F302B0FD0297FC02071A830000277F
S11344800718CE0204BD457DFC02171A83000027DD
S11344900718CE0214BD457DFC02271A83000027AD
S11344A00718CE0224BD457DFC02371A830000277D
S11344B00718CE0234BD457DFC02471A830000274D
S11344C00718CE0244BD457DFC02571A830000271D
S11344D00718CE0254BD457DFC02671A83000027ED
S11344E00718CE0264BD457DFC02771A83000027BD
S11344F00718CE0274BD457DFC02881A830000278C
S11345000718CE0284BD4572FC029718CE0294BDF2
S1134510457D5A5A5A5A2E08C6323DCE00010239F8
S1134520C6041BC6323DCE000202395A5A5A5A2ECC
S113453008C60A3DCE00010239C6041BC60A3DCE98
S1134540000202395A5A5A5A5A2E08C6323DCE002F
S1134550010239C6323DCE000202395A5A5A5A5A19
S11345602E08C60A3DCE00010239C60A3DCE00021D
S11345700239CE03E8028F18E70018088FCE0064D2
S1134580028F18E70018088FCE000A028F18E70080
S113459018088F18E70039865B9730862D97318687
S11345A05D9732864597338652973486529735867F
S11345B04F97368652973739C632015A27FA7F0009
S11345C0307F00317F00327F00337F00347F00353D
S11345D07F00367F003739CC302CB7102BF7102DE5
S11345E08600B7102C86FEB710098604B7103C86E7
S10645F000063985
S10FF100B6102EB6102F97007A00013BC9
S105FFD6F10034
S105FFFE80007D
S10900405449434B4554F2
S11300502D2D2D2D2D2D2D2D2D2D2D2D2D2D2D2DCC
S11301002D2D2D2D2D2D2D2D2D2D2D2D2D2D2D2D1B
S1090110544F54414C3A27
S9030000FC
